{
  "contractName": "MyExchange",
  "abi": [
    {
      "constant": true,
      "inputs": [],
      "name": "owner",
      "outputs": [
        {
          "name": "",
          "type": "address"
        }
      ],
      "payable": false,
      "stateMutability": "view",
      "type": "function",
      "signature": "0x8da5cb5b"
    },
    {
      "constant": false,
      "inputs": [
        {
          "name": "newOwner",
          "type": "address"
        }
      ],
      "name": "transferOwnership",
      "outputs": [],
      "payable": false,
      "stateMutability": "nonpayable",
      "type": "function",
      "signature": "0xf2fde38b"
    },
    {
      "inputs": [],
      "payable": false,
      "stateMutability": "nonpayable",
      "type": "constructor",
      "signature": "constructor"
    },
    {
      "anonymous": false,
      "inputs": [
        {
          "indexed": false,
          "name": "_token",
          "type": "address"
        },
        {
          "indexed": false,
          "name": "_user",
          "type": "address"
        },
        {
          "indexed": false,
          "name": "_amount",
          "type": "uint256"
        }
      ],
      "name": "LogDepositToken",
      "type": "event",
      "signature": "0xb024cc5591038c18f7e2348d474092b453a32212dd1ebcc0370c4ac2e42cce43"
    },
    {
      "anonymous": false,
      "inputs": [
        {
          "indexed": false,
          "name": "_token",
          "type": "address"
        },
        {
          "indexed": false,
          "name": "_user",
          "type": "address"
        },
        {
          "indexed": false,
          "name": "_amount",
          "type": "uint256"
        }
      ],
      "name": "LogWithdrawToken",
      "type": "event",
      "signature": "0x46ae78bc7b198b8b534ca0070d125569ac5f955976841c4343223079f3abf0de"
    },
    {
      "constant": true,
      "inputs": [
        {
          "name": "_token",
          "type": "address"
        },
        {
          "name": "_user",
          "type": "address"
        }
      ],
      "name": "userTokenBalance",
      "outputs": [
        {
          "name": "balance",
          "type": "uint256"
        }
      ],
      "payable": false,
      "stateMutability": "view",
      "type": "function",
      "signature": "0xb47064c8"
    },
    {
      "constant": false,
      "inputs": [
        {
          "name": "_token",
          "type": "address"
        },
        {
          "name": "_amount",
          "type": "uint256"
        }
      ],
      "name": "depositToken",
      "outputs": [],
      "payable": false,
      "stateMutability": "nonpayable",
      "type": "function",
      "signature": "0x338b5dea"
    },
    {
      "constant": false,
      "inputs": [
        {
          "name": "_token",
          "type": "address"
        },
        {
          "name": "_amount",
          "type": "uint256"
        }
      ],
      "name": "withdrawToken",
      "outputs": [],
      "payable": false,
      "stateMutability": "nonpayable",
      "type": "function",
      "signature": "0x9e281a98"
    }
  ],
  "bytecode": "0x608060405234801561001057600080fd5b50336000806101000a81548173ffffffffffffffffffffffffffffffffffffffff021916908373ffffffffffffffffffffffffffffffffffffffff160217905550610b14806100606000396000f3fe60806040526004361061006d576000357c0100000000000000000000000000000000000000000000000000000000900463ffffffff168063338b5dea146100725780638da5cb5b146100cd5780639e281a9814610124578063b47064c81461017f578063f2fde38b14610204575b600080fd5b34801561007e57600080fd5b506100cb6004803603604081101561009557600080fd5b81019080803573ffffffffffffffffffffffffffffffffffffffff16906020019092919080359060200190929190505050610255565b005b3480156100d957600080fd5b506100e2610603565b604051808273ffffffffffffffffffffffffffffffffffffffff1673ffffffffffffffffffffffffffffffffffffffff16815260200191505060405180910390f35b34801561013057600080fd5b5061017d6004803603604081101561014757600080fd5b81019080803573ffffffffffffffffffffffffffffffffffffffff16906020019092919080359060200190929190505050610628565b005b34801561018b57600080fd5b506101ee600480360360408110156101a257600080fd5b81019080803573ffffffffffffffffffffffffffffffffffffffff169060200190929190803573ffffffffffffffffffffffffffffffffffffffff16906020019092919050505061094e565b6040518082815260200191505060405180910390f35b34801561021057600080fd5b506102536004803603602081101561022757600080fd5b81019080803573ffffffffffffffffffffffffffffffffffffffff1690602001909291905050506109d5565b005b8173ffffffffffffffffffffffffffffffffffffffff1663095ea7b330836040518363ffffffff167c0100000000000000000000000000000000000000000000000000000000028152600401808373ffffffffffffffffffffffffffffffffffffffff1673ffffffffffffffffffffffffffffffffffffffff16815260200182815260200192505050602060405180830381600087803b1580156102f857600080fd5b505af115801561030c573d6000803e3d6000fd5b505050506040513d602081101561032257600080fd5b8101908080519060200190929190505050508173ffffffffffffffffffffffffffffffffffffffff166323b872dd3330846040518463ffffffff167c0100000000000000000000000000000000000000000000000000000000028152600401808473ffffffffffffffffffffffffffffffffffffffff1673ffffffffffffffffffffffffffffffffffffffff1681526020018373ffffffffffffffffffffffffffffffffffffffff1673ffffffffffffffffffffffffffffffffffffffff1681526020018281526020019350505050602060405180830381600087803b15801561040b57600080fd5b505af115801561041f573d6000803e3d6000fd5b505050506040513d602081101561043557600080fd5b8101908080519060200190929190505050151561045157600080fd5b6104e081600160008573ffffffffffffffffffffffffffffffffffffffff1673ffffffffffffffffffffffffffffffffffffffff16815260200190815260200160002060003373ffffffffffffffffffffffffffffffffffffffff1673ffffffffffffffffffffffffffffffffffffffff16815260200190815260200160002054610aa590919063ffffffff16565b600160008473ffffffffffffffffffffffffffffffffffffffff1673ffffffffffffffffffffffffffffffffffffffff16815260200190815260200160002060003373ffffffffffffffffffffffffffffffffffffffff1673ffffffffffffffffffffffffffffffffffffffff168152602001908152602001600020819055507fb024cc5591038c18f7e2348d474092b453a32212dd1ebcc0370c4ac2e42cce43823383604051808473ffffffffffffffffffffffffffffffffffffffff1673ffffffffffffffffffffffffffffffffffffffff1681526020018373ffffffffffffffffffffffffffffffffffffffff1673ffffffffffffffffffffffffffffffffffffffff168152602001828152602001935050505060405180910390a15050565b6000809054906101000a900473ffffffffffffffffffffffffffffffffffffffff1681565b80600160008473ffffffffffffffffffffffffffffffffffffffff1673ffffffffffffffffffffffffffffffffffffffff16815260200190815260200160002060003373ffffffffffffffffffffffffffffffffffffffff1673ffffffffffffffffffffffffffffffffffffffff16815260200190815260200160002054101515156106b357600080fd5b61074281600160008573ffffffffffffffffffffffffffffffffffffffff1673ffffffffffffffffffffffffffffffffffffffff16815260200190815260200160002060003373ffffffffffffffffffffffffffffffffffffffff1673ffffffffffffffffffffffffffffffffffffffff16815260200190815260200160002054610ac690919063ffffffff16565b600160008473ffffffffffffffffffffffffffffffffffffffff1673ffffffffffffffffffffffffffffffffffffffff16815260200190815260200160002060003373ffffffffffffffffffffffffffffffffffffffff1673ffffffffffffffffffffffffffffffffffffffff168152602001908152602001600020819055508173ffffffffffffffffffffffffffffffffffffffff1663a9059cbb33836040518363ffffffff167c0100000000000000000000000000000000000000000000000000000000028152600401808373ffffffffffffffffffffffffffffffffffffffff1673ffffffffffffffffffffffffffffffffffffffff16815260200182815260200192505050602060405180830381600087803b15801561086557600080fd5b505af1158015610879573d6000803e3d6000fd5b505050506040513d602081101561088f57600080fd5b810190808051906020019092919050505015156108ab57600080fd5b7f46ae78bc7b198b8b534ca0070d125569ac5f955976841c4343223079f3abf0de823383604051808473ffffffffffffffffffffffffffffffffffffffff1673ffffffffffffffffffffffffffffffffffffffff1681526020018373ffffffffffffffffffffffffffffffffffffffff1673ffffffffffffffffffffffffffffffffffffffff168152602001828152602001935050505060405180910390a15050565b6000600160008473ffffffffffffffffffffffffffffffffffffffff1673ffffffffffffffffffffffffffffffffffffffff16815260200190815260200160002060008373ffffffffffffffffffffffffffffffffffffffff1673ffffffffffffffffffffffffffffffffffffffff16815260200190815260200160002054905092915050565b6000809054906101000a900473ffffffffffffffffffffffffffffffffffffffff1673ffffffffffffffffffffffffffffffffffffffff163373ffffffffffffffffffffffffffffffffffffffff161415610aa257600073ffffffffffffffffffffffffffffffffffffffff168173ffffffffffffffffffffffffffffffffffffffff16141515610aa157806000806101000a81548173ffffffffffffffffffffffffffffffffffffffff021916908373ffffffffffffffffffffffffffffffffffffffff1602179055505b5b50565b6000808284019050838110151515610abc57600080fd5b8091505092915050565b6000828211151515610ad757600080fd5b60008284039050809150509291505056fea165627a7a7230582064633e06c0bfc144a33b7ebde9b58ecfdfe95d7b31ab166bdf2e3a972d3275890029",
  "source": "pragma solidity >=0.4.21 <0.6.0;\r\n\r\nimport \"./SafeMath.sol\";\r\nimport \"./IERC20.sol\";\r\nimport \"./Ownable.sol\";\r\n\r\ncontract ERC20 is IERC20 {\r\n\r\n  /// total amount of tokens\r\n  uint256 public totalSupply;\r\n  string public name;\r\n\r\n  mapping (address => uint256) public balances;\r\n  mapping (address => mapping (address => uint256)) public allowed;\r\n\r\n  function transfer(address _to, uint256 _value) public returns (bool success) {\r\n    require(balances[msg.sender] >= _value);\r\n    balances[msg.sender] -= _value;\r\n    balances[_to] += _value;\r\n    emit LogTransfer(msg.sender, _to, _value);\r\n    return true;\r\n  }\r\n\r\n  function approve(address _spender, uint256 _value) public returns (bool success) {\r\n    allowed[msg.sender][_spender] = _value;\r\n    emit LogApproval(msg.sender, _spender, _value);\r\n    return true;\r\n  }\r\n\r\n  function transferFrom(address _from, address _to, uint256 _value) public returns (bool success){\r\n    require(balances[_from] >= _value);\r\n    require(allowed[_from][msg.sender] >= _value);\r\n    balances[_from] -= _value;\r\n    balances[_to] += _value;\r\n    allowed[_from][msg.sender] -= _value;\r\n    emit LogTransfer(_from, _to, _value);\r\n    return true;\r\n  }\r\n\r\n  function balanceOf(address _owner) public view returns (uint256 balance) {\r\n    return balances[_owner];\r\n  }\r\n\r\n  function allowance(address _owner, address _spender) public view returns (uint256 remaining){\r\n    return allowed[_owner][_spender];\r\n  }\r\n\r\n}\r\n\r\ncontract MyExchange is Ownable{\r\n\r\n  using SafeMath for uint256;\r\n\r\n  ///Create functionality for creating orders (buy, sell)\r\n  //Create functionality to cancel an order\r\n\r\n  event LogDepositToken(address _token, address _user, uint256 _amount);\r\n  event LogWithdrawToken(address _token, address _user, uint256 _amount);\r\n\r\n  mapping (address => mapping (address => uint256) ) userBalanceForToken;\r\n  /// mapping (address => mapping (type1 => type2) ) userOrders;\r\n\r\n  constructor() public {\r\n    owner = msg.sender;\r\n  }\r\n\r\n  /// Returns amount of specific _token owned by _user\r\n  function userTokenBalance(address _token, address _user) public view returns (uint256 balance) {\r\n    return userBalanceForToken[_token][_user];\r\n  }\r\n\r\n  /// Function to send _amount of specific _token to contract\r\n  /// This allows the contract to spend _amount tokens on your behalf.\r\n  /// triggers DepositToken event\r\n  function depositToken(address _token, uint256 _amount) public {\r\n    ERC20(_token).approve(address(this), _amount);\r\n    require(ERC20(_token).transferFrom(msg.sender, address(this), _amount));\r\n    userBalanceForToken[_token][msg.sender] = userBalanceForToken[_token][msg.sender].add(_amount);\r\n    emit LogDepositToken(_token, msg.sender, _amount);\r\n  }\r\n\r\n  /// function to withdraw _amount of specific _token from contract\r\n  /// triggers WithdrawToken event\r\n  function withdrawToken(address _token, uint256 _amount) public {\r\n    require(userBalanceForToken[_token][msg.sender] >= _amount);\r\n    userBalanceForToken[_token][msg.sender] = userBalanceForToken[_token][msg.sender].sub(_amount);\r\n    require(ERC20(_token).transfer(msg.sender, _amount));\r\n    emit LogWithdrawToken(_token, msg.sender, _amount);\r\n  }\r\n}\r\n",
  "sourcePath": "C:/Users/Madness/Desktop/TFG/tfg/contracts/MyExchange.sol",
  "compiler": {
    "name": "solc",
    "version": "0.5.0+commit.1d4f565a.Emscripten.clang"
  },
  "schemaVersion": "3.0.1",
  "updatedAt": "2019-02-21T18:45:26.061Z",
  "devdoc": {
    "methods": {}
  },
  "userdoc": {
    "methods": {
      "constructor": "mapping (address => mapping (type1 => type2) ) userOrders;",
      "depositToken(address,uint256)": {
        "notice": "triggers DepositToken event"
      },
      "userTokenBalance(address,address)": {
        "notice": "Returns amount of specific _token owned by _user"
      },
      "withdrawToken(address,uint256)": {
        "notice": "triggers WithdrawToken event"
      }
    }
  }
}